:020000040000FA
:0200000089284D
:08000800A000030E8301BA0001
:100010000A08B50003308A00AC2B031783168C0145
:100020000C1483120C0803178D0A8428030103178C
:100030008C0083168C010C1555308D00AA308D0074
:100040008C148C1821280C1183128D0A8428A40189
:10005000A300FF30A307031CA407031C842803305C
:10006000A200DF3035202928A201E83EA100A20924
:10007000FC30031C3E28A10703183B28A10764009D
:10008000A20F3B2821184428A11C4828000048281A
:100090000800A201A401A30006305328A201A40174
:1000A000A30004305328A90024082202031D5A2863
:1000B00023082102043003180130031902302905F6
:1000C000031DFF3084280038031DFF300405031D85
:1000D000FF3084280404031DFF3084281030A90059
:1000E000A201A101A80CA70C031C7C282308A107CE
:1000F00024080318240FA207A20CA10CA60CA50C1F
:10010000A90B722825088428831303138312640023
:100110000800F5018A11872C64005908073C8A11F0
:10012000031DA82801305A07CC00CD01CD0D4C0885
:10013000A7004D08A8001630A300A4018A016E2074
:10014000CC002608CD004D08A4004C088A012820C8
:1001500064005908083C8A11031DC42801305A075D
:10016000CC00CD01CD0D4C08A7004D08A8001030E3
:10017000A300A4018A016E20CC002608CD004D0802
:10018000A4004C088A0128205908093C031DFF30AF
:10019000FF3ACC005908053C031DFF30FF3ACE0062
:1001A0004C0884004E088A016A20CE00CF0059080E
:1001B000043C031DFF30FF3AD0004E084F0484007A
:1001C00050088A016A20D000D10064005008510410
:1001D0008A110319012901305A07CC00CD01CD0D38
:1001E0004C08A7004D08A8000C30A300A4018A0108
:1001F0006E20CC002608CD004D08A4004C088A01D2
:10020000282008006A08193C8A11031C2D298A112C
:100210000C21E8008A112D2901308A006A08133E5A
:1002200003188A0A8200EC34F1349C34F1349C3493
:100230008C34BC346C34913478340C341C346E34CB
:100240006E34FC34CC34FC34CC34B43481347C345F
:100250000C346C340234023490346A08193C8A112C
:10026000031C58298A113721E9008A1158290130C5
:100270008A006A083E3E03188A0A820048344034E5
:100280000034003408340834403448340034003436
:10029000A8340034803420340034483420346834A6
:1002A00048340034003490343034B03490349034D6
:1002B0008A11F42C6A08093C8A11031C75298A11D9
:1002C0006421E8008A11752901308A006A086B3EB2
:1002D00003188A0A8200FC346034D834F034643461
:1002E000B434BC34E034FC34E4346A08093C8A1188
:1002F000031C90298A117F21E9008A11902901307D
:100300008A006A08863E03188A0A82000034003494
:10031000483440344834483448340034483448344D
:100320008A11F42C6A08093C8A11031CAD298A1130
:100330009C21E8008A11AD2901308A006A08A33E99
:1003400003188A0A8200FC340134D034B0340434F7
:100350009434BC3480347034E4346A08093C8A1123
:10036000031CC8298A11B721E9008A11C829013064
:100370008A006A08BE3E03188A0A8200903400345C
:100380005034C0349834283448349034D03448340D
:100390008A11F42C6A08093C8A11031CE5298A1188
:1003A000D421E8008A11E52901308A006A08DB3E81
:1003B00003188A0A82007034003490349034043474
:1003C000923410348034923482346A08093C8A11A1
:1003D000031C002A8A11EF21E9008A11002A01304A
:1003E0008A006A08F63E03188A0A82008834883434
:1003F0008834A0348C342034A8348834A834883429
:100400008A11F42C6A08093C8A11031C1D2A8A11DE
:100410000C22E8008A111D2A02308A006A08133E65
:1004200003188A0A82001E346034983490340434ED
:10043000B23430348034B43484346A08093C8A11CC
:10044000031C382A8A112722E9008A11382A02302F
:100450008A006A082E3E03188A0A820020348034FB
:100460008434A43494344034C8349034CC34943438
:100470008A11F42C6A08093C8A11031C552A8A1136
:100480004422E8008A11552A02308A006A084B3E4D
:1004900003188A0A8200FC346034D834F03466349D
:1004A000B634BC34C034FE34E4346A08093C8A11E2
:1004B000031C702A8A115F22E9008A11702A023017
:1004C0008A006A08663E03188A0A8200A834C0348B
:1004D000CC34E034E43464346C34D0344C34A4345C
:1004E0008A11F42C6A08093C8A11031C8D2A8A118E
:1004F0007C22E8008A118D2A02308A006A08833E35
:1005000003188A0A8200FC3400346E34FD349134BE
:100510006C346C349C34FD349D346A08093C8A1177
:10052000031CA82A8A119722E9008A11A82A0230FE
:100530008A006A089E3E03188A0A820044344434C2
:10054000483410341434A434E434003454341434AF
:100550008A11F42C6A08093C8A11031CC52A8A11E5
:10056000B422E8008A11C52A02308A006A08BB3E1C
:1005700003188A0A8200FC3460341634923406343C
:1005800050348C348134263416346A08093C8A117C
:10059000031CE02A8A11CF22E9008A11E02A0230E6
:1005A0008A006A08D63E03188A0A82002834A034DA
:1005B0000C340C345434E0340C349034643424342B
:1005C0008A11F42C6A08093C8A11031CFD2A8A113D
:1005D000EC22E8008A11FD2A02308A006A08F33E04
:1005E00003188A0A82006E340F340E340E340E342F
:1005F000603460346034623461346A08093C8A11C2
:10060000031C182B8A110723E9008A11182B0330C9
:100610008A006A080E3E03188A0A8200A834083449
:10062000883448342834B034A834A434A034A034F6
:100630008A11F42C6A08093C8A11031C352B8A1193
:100640002423E8008A11352B03308A006A082B3EE8
:1006500003188A0A82008034C034E034F034F8345D
:10066000FC34FE34FF34FF34FF346A08093C8A113D
:10067000031C502B8A113F23E9008A11502B0330B1
:100680008A006A08463E03188A0A82000034003451
:100690000034003400340034003400348034C0347A
:1006A0008A11F42C6A08093C8A11031C6D2B8A11EB
:1006B0005C23E8008A116D2B03308A006A08633ED0
:1006C00003188A0A820080344034203410340834FD
:1006D000043402340134003400346A08093C8A11BD
:1006E000031C882B8A117723E9008A11882B033099
:1006F0008A006A087E3E03188A0A820000340034A9
:100700000034003400340034003400348034403489
:100710008A11F42C64007E306A028A11031C922B29
:100720008A11F42C6A08A700A8010230A300A401D2
:100730008A016E20D700570803178D0003138A0122
:100740000D20E800D70A570803178D0003138A010C
:100750000D20E9008A11F42C0B1F782C8C1E782CAC
:100760001A08EE00990000000C1EB42B6D18BE2B69
:100770006D146E08243A031D732C802CED18C62BC3
:10078000ED146E08423A031D732C802C6D19CE2B8C
:100790006D156E08373A031D732C802CED19FE2B56
:1007A000ED15EF016E08F0004D3A0319EC2B7008BF
:1007B000463A0319F22B7008573A0319EF2B7008C9
:1007C000453A0319F52B7008533A0319F82B7008B2
:1007D000553A0319FB2B732C0130F400802C0230A6
:1007E000F400802C0330F400802C0430F400802CC2
:1007F0000530F400802C0730F400802C6E080D3A90
:1008000003191F2C7408023A031D142C11306F02B7
:100810000318802C3B306F0784006E0880006F083F
:10082000FF3A031DEF0A802C6F08FF3A031DEF0A01
:100830006F085506031D802C6E08EA00802C5508B1
:100840006F02031C732C6A08213A0319732C740875
:10085000033A031D342C6A08DB003030DB025B08EE
:10086000D800FD30D7004E2C7408043A031D412CEB
:100870006A08D9003030D9025908D800FE30D700B4
:100880004E2C7408053A031D642C6A08DA003030D7
:10089000DA025A08D800FF30D7004E2C8312031317
:1008A0000D12570803178D000313580803178C0007
:1008B00083168C130C1555308D00AA308D008C14C6
:1008C000000083120313732C7408073A031D712C64
:1008D0006A08303A0319F5136A08313A0319F51713
:1008E000732CD414802CEF01F401ED01D410802C72
:1008F0000B1D802C0B11F20B802C54147308F2008A
:1009000035088A003A0E8300A00E200E09008316D7
:1009100087309F0085012030860087018312850182
:10092000860187018B0183168C0187308100831239
:10093000940183169401831203179E019F0183166D
:1009400003139B01831283169001183099006130C4
:100950008F00A43098008312903098001830F30074
:100960007308F200EF01D3010130D600F501203009
:10097000EA00D401F401E201E301E801E901DB014D
:100980000130D9000330DA000C1EC42CAB309900C2
:1009900000000C1EC92C01308A01272018121A08E9
:1009A0001A081A08181600000000AB309900000061
:1009B0000C1ED82C05308A0127201A08AB3A0319DF
:1009C000E92C0130D500EA00990000000C1EE62C4D
:1009D0003D2E8C1EE92C1A08013ED500990000001E
:1009E0000C1EF02C8A113D2EE81BE416E81FE412C1
:1009F000681B6417681F6413E81A6316E81E631205
:100A0000681A6414681E6410E8196214E81D621004
:100A100068196216681D6212E818E417E81CE413EE
:100A20006818E415681CE411E91B6416E91F6412D8
:100A3000691B6317691F6313E91A6415E91E6411C2
:100A4000691AE214691EE210E919E216E91DE212C0
:100A50006919E414691DE410E9186215E91C6211B2
:100A6000F51B62158A111E2FED01D4108316D410C8
:100A7000640083127408003C8A110319412D8A1105
:100A8000442DEF01F40108007308F20064007408BB
:100A9000023C8A110319732DF40164005B08253CA4
:100AA0008A1103196E2D2F30A1006A088A014E2089
:100AB000CC006A08A1003A308A014E20CE004C08D2
:100AC00084004E088A016320CE00CF0064004E08E7
:100AD0004F048A1103196E2D3030EA02D4178316A1
:100AE000D4138312080064005B08253C8A110319A3
:100AF0007A2D0800F40164007E303B028A11031C49
:100B0000822D08003B08A700A8010230A300A40121
:100B10008A016E20D700D80164003C08313C8A115C
:100B2000031D962DD8178316D813831264003D0831
:100B3000313C8A11031DA02D5817831658138312B8
:100B400064003E08313C8A11031DAA2DD816831675
:100B5000D812831264003F08313C8A11031DB42D62
:100B6000581683165812831264004008313C8A11CB
:100B7000031DBE2DD8158316D811831264004108B9
:100B8000313C8A11031DC82D581583165811831244
:100B900064004208313C8A11031DD22DD8148316FB
:100BA000D810831264004308313C8A11031DDC2DE8
:100BB0005814831658108312570803178D00031317
:100BC00058088A011720D70AD80164004408313C2C
:100BD0008A11031DEF2DD8178316D81383126400D2
:100BE0004508313C8A11031DF92D581783165813F7
:100BF000831264004608313C8A11031D032ED81667
:100C00008316D812831264004708313C8A11031DF1
:100C10000D2E581683165812831264004808313C72
:100C20008A11031D172ED8158316D811831264005C
:100C30004908313C8A11031D212E5815831658117D
:100C4000831264004A08313C8A11031D2B2ED814EC
:100C50008316D810831264004B08313C8A11031D9F
:100C6000352E5814831658108312570803178D0019
:100C7000031358088A01172008000317FD308D0060
:100C800003138A010D20DB000317FE308D000313D0
:100C90008A010D20D9000317FF308D0003138A014C
:100CA0000D20DA00E0308B00831620308C00831298
:100CB00064008A11541C602E541083165410831241
:100CC00064008A11D41C662E8A01342564008A11BE
:100CD000D41F6C2E8A116E268A01582ED4138316C7
:100CE000D413FF308312CC006A08A1000A308A01B5
:100CF0004E20CE004C0884004E088A016320CE00AE
:100D0000CF0064004E084F048A110319892E8A11FE
:100D1000BA2E64005B08253C8A11031D912E8A01BE
:100D20008A2B4030A1006A088A014E20CC006A0854
:100D3000A1005B308A014E20CE004C0884004E0892
:100D40008A016320CE00CF0064004E084F048A1150
:100D50000319AE2E4130EA028A01022964006A08B2
:100D6000203C8A11031DB82EE801E9018A01F42C08
:100D70008A158F2864005B08003C8A11031DC42E6D
:100D80008A015A298A111C2F64005B08013C8A11D0
:100D9000031DCE2E8A0192298A111C2F64005B0844
:100DA000023C8A11031DD82E8A01CA298A111C2FE0
:100DB00064005B08033C8A11031DE22E8A01022AAB
:100DC0008A111C2F64005B08043C8A11031DEC2E61
:100DD0008A013A2A8A111C2F64005B08053C8A119B
:100DE000031DF62E8A01722A8A111C2F64005B08EB
:100DF000063C8A11031D002F8A01AA2A8A111C2F82
:100E000064005B08073C8A11031D0A2F8A01E22A4D
:100E10008A111C2F64005B08083C8A11031D142FE3
:100E20008A011A2B8A111C2F64005B08093C8A1165
:100E3000031D1C2F8A01522B8A015A295908A2002E
:100E4000093C8A11031C492FA20D8A112E27A100EB
:100E500022108A112E278A002108820007308A007A
:100E60002208353E03188A0A820008348F34083479
:100E70009734083497340834EF340C3466340D3426
:100E800082340B341C3407344B3407344B340A346B
:100E900006348A158F2807168316071283128514C5
:100EA0008316851083128711831687118312871189
:100EB00083168711831287128316871283120710F5
:100EC00083160710831205118316051183128A01F8
:100ED0008C20061783160613831285168316851237
:100EE000831207128316071283128510831685104A
:100EF0008312071383160713831205108316051038
:100F000083128A018C200715831607118312871715
:100F10008316871383120613831606138312851212
:100F20008316851283120612831606128312051287
:100F30008316051283128A018C2087158316871168
:100F400083128715831687118312071183160711E1
:100F5000831287138316871383128A018C206400FF
:100F60005908083C8A110319B72F8A11FF2F071659
:100F70008316071283128514831685108312871136
:100F800083168711831287118316871183128A01B2
:100F90008C20061783160613831285168316851276
:100FA0008312071283160712831285108316851089
:100FB00083128A018C200715831607118312871765
:100FC0008316871383120613831606138312851262
:100FD0008316851283128A018C2087158316871148
:100FE0008312871583168711831207118316071141
:100FF000831287138316871383128A018C200716A6
:1010000083160712831285148316851064008A15CF
:10101000831268180F2887118316871183128A019B
:101020008C200617831606138312851683168512E5
:1010300064008A158312E91B212807128316071200
:10104000831264008A15691A292885108316851071
:10105000831264008A15681F312807178316071347
:10106000831264008A15E81D3928051483160510BB
:1010700083128A018C2007158316071183128717A4
:101080008316871364008A158312691B4B28061385
:1010900083160613831264008A15E91953288512F2
:1010A00083168512831264008A15E81E5B280616D3
:1010B00083160612831264008A15681D63280516BC
:1010C0008316051283128A018C2064008A15E91A9E
:1010D0006D28071183160711831264008A15E8181A
:1010E0007528871383168713831264008A15E81FF7
:1010F0007D28871683168712831264008A15681E5E
:101100008528071483160710831264008A15F51FBB
:101110008D2805158316051183128A158029640808
:10112000870063088600620885008A1580295A0AAC
:10113000D200DC015208A700A8011930A300A401C5
:101140008A016E20DE0064005908023C8A15031DE6
:10115000B2285208A700A8011530A300A4018A01F3
:101160006E20DE00DC0164005C085E028A15031C50
:10117000E728DD01DD01640009305D028A150318EE
:10118000E328620885006308860064088700590820
:10119000023A031DCE285E08DF00D1285C08013E1C
:1011A000DF00DF0BD1286508850066088600670828
:1011B00087005C085E02013EDF00DF0BDD28DD0AF0
:1011C0008A15031DBB28DC0A8A15031DB328620893
:1011D000850063088600640887008A1580295A0AFA
:1011E000D200DC015208A700A8011930A300A40115
:1011F0008A016E20DE0064005908043C8A15031D34
:101200000A295208A700A8010F30A300A4018A01EF
:101210006E20DE00DC0164005C085E028A15031C9F
:101220003829DD01DD0164000A305D028A150318EA
:101230003429FF308500FF308600FF3087005C08CE
:10124000013EDF00DF0B2229650885006608860065
:10125000670887005C085E02013EDF00DF0B2E2975
:10126000DD0A8A15031D1329DC0A8A15031D0B29C3
:1012700064005908053C8A15031D40298A15782900
:10128000DC015208A700A8011930A300A4018A01BB
:101290006E20DE00DC0164005C085E028A15031C1F
:1012A0007829DD01DD01640007305D028A1503182D
:1012B00074296208850063088600640887005C085A
:1012C000013EDF00DF0B6229FF308500FF30860022
:1012D000FF3087005C085E02013EDF00DF0B6E29F5
:1012E000DD0A8A15031D5329DC0A8A15031D4B29C3
:1012F0006208850063088600640887008A158029D3
:101300006208E5006308E6006408E70008000508D5
:10131000E5005A0AD200DC015208A700A8011930E2
:10132000A300A4018A016E20DE00DC0164005C08D9
:101330005E028A15031CAF29710885005C08013E16
:10134000DF00DF0BA129650885005C085E02013E15
:10135000DF00DF0BA929DC0A8A15031D9629710815
:10136000850008000608E6005A0AD200DC0152088F
:10137000A700A8011930A300A4018A016E20DE0095
:10138000DC0164005C085E028A15031CD8295C0835
:10139000013EDF00DF0BCA29660886005C085E029A
:1013A000013EDF00DF0BD229DC0A8A15031DC129AB
:1013B0007108860008000708E7005A0AD200DC011D
:1013C0005208A700A8011930A300A4018A016E20C9
:1013D000DE00DC0164005C085E028A15031C032A3F
:1013E000710887005C08013EDF00DF0BF529670804
:1013F00087005C085E02013EDF00DF0BFD29DC0A8E
:101400008A15031DEA29710887000800071683164C
:101410000712831287128316871283128A018C2087
:1014200006178316061383120712831607128312F8
:1014300007138316071383128A018C20071583165E
:1014400007118312061383160613831206128316DE
:10145000061283128A018C20871583168711831246
:1014600007118316071183128A018C2085148316B5
:101470008510831287118316871183120710831634
:101480000710831205118316051183128A018C201F
:101490008516831685128312851083168510831294
:1014A00005108316051083128A018C208717831676
:1014B00087138312851283168512831205128316F1
:1014C000051283128A018C208715831687118312D7
:1014D00087138316871383128A018C2007168316BD
:1014E000071264008A15831268187A2A87118316F6
:1014F0008711831264008A15E81F822A87168316D3
:10150000871283128A018C20061783160613640043
:101510008A158312E91B902A071283160712831279
:1015200064008A15681F982A071783160713831209
:101530008A018C2007158316071164008A1583120F
:10154000691BA62A061383160613831264008A15E4
:10155000E81EAE2A06168316061283128A018C2014
:1015600087158316871164008A158312E91ABC2A2D
:1015700007118316071183128A018C2085148316A4
:10158000851064008A1583126818CA2A8711831689
:101590008711831264008A15681ED22A07148316E5
:1015A0000710831264008A15F51FDA2A05158316C1
:1015B000051183128A018C2085168316851264001A
:1015C0008A158312691AE82A8510831685108312FA
:1015D00064008A15E81DF02A05148316051083128D
:1015E0008A018C2087178316871364008A1583125B
:1015F000E919FE2A851283168512831264008A1562
:10160000681D062B05168316051283128A018C208D
:1016100064008A15681C102B8715831687118312A6
:1016200064008A15E818182B871383168713831212
:101630008A018C208A15802964008A15871A222B3A
:101640008A15272B20300702F1008A15DB21640060
:101650008A15061A2D2B8A15322B10300602F1003E
:101660008A15B22164008A150719382B8A153D2B7B
:1016700004300702F1008A15DB2164008A158718FF
:10168000432B8A15482B02300702F1008A15DB2113
:1016900064008A1587194E2B8A15532B08300702D0
:1016A000F1008A15872164008A158518592B8A153F
:1016B0005E2B10300702F1008A15DB2164008A15C9
:1016C000051A642B8A15692B10300502F1008A1562
:1016D000872164008A15061B6F2B8A15742B4030F6
:1016E0000602F1008A15B22164008A1507187A2BC8
:1016F0008A157E2B0703F1008A15DB2164008A1509
:10170000071B842B8A15892B40300702F1008A15AC
:10171000DB2164008A15851A8F2B8A15942B2030C3
:101720000502F1008A15872164008A15871B9A2B10
:101730008A159F2B80300702F1008A15DB21640097
:101740008A15071AA52B8A15AA2B10300702F1005B
:101750008A15DB2164008A150518B02B8A15B42B75
:101760000503F1008A15872164008A150519BA2B33
:101770008A15BF2B04300502F1008A15DB218A157A
:10178000C12B64008A15E41AC72B8A15CC2B203094
:101790000707F1008A15DB2164008A15641AD22B31
:1017A0008A15D72B10300607F1008A15B221640084
:1017B0008A156419DD2B8A15E22B04300707F10026
:1017C0008A15DB2164008A15E418E82B8A15ED2BB5
:1017D00002300707F1008A15DB2164008A15E4193D
:1017E000F32B8A15F82B08300707F1008A15DB2147
:1017F00064008A15641AFE2B8A15032C1030070723
:10180000F1008A15DB2164008A15621A092C8A15F9
:101810000E2C10300507F1008A15872164008A1507
:10182000631B142C8A15192C40300607F1008A1509
:10183000B22164008A1564181F2C8A15232C070A0C
:10184000F1008A15DB2164008A15641B292C8A1596
:101850002E2C40300707F1008A15DB2164008A1521
:10186000E21A342C8A15392C20300507F1008A152C
:10187000872164008A15E41B3F2C8A15442C803094
:101880000707F1008A15DB2164008A15641A4A2CC7
:101890008A154F2C10300707F1008A15DB216400F0
:1018A0008A156218552C8A15592C050AF1008A15DB
:1018B000872164008A1562195F2C8A15642C043014
:1018C0000507F1008A1587218A1580298715831657
:1018D000871183128A018C2087178316871383123E
:1018E0000716831607128312871183168711831236
:1018F00087128316871283128A018C20851683161D
:101900008512831206178316061383120712831695
:101910000712831287138316871383120713831604
:101920000713831205128316051283128A018C2075
:1019300007158316071183128514831685108312E9
:1019400085128316851283120613831606138312DB
:1019500005108316051083120612831606128312D1
:101960008A018C20871583168711831285108316B0
:10197000851083120711831607118312071083162F
:10198000071083128A018C20871183168711831216
:1019900005118316051183128A018C208715831681
:1019A000871183128A018C2064008A15F51FDC2CB4
:1019B0000515831605118312071483160710831269
:1019C000071583160711831285148316851064008A
:1019D0008A1583126818F02C8711831687118312D9
:1019E0008A018C20851683168512831206178316AA
:1019F0000613831206168316061283120514831625
:101A0000051064008A158312E91A0A2D071183163E
:101A10000711831264008A15691A122D8510831626
:101A20008510831264008A15681A1A2D0710831610
:101A3000071083128A018C2087178316871383125D
:101A400007168316071283120717831607138312CC
:101A500005168316051264008A158312E919342DC0
:101A6000851283168512831264008A15691B3C2D2A
:101A7000061383160613831264008A15E81A442D90
:101A8000061283160612831264008A15E8194C2D7B
:101A900005108316051083128A018C208716831681
:101AA000871264008A158312681B5A2D0713831648
:101AB0000713831264008A156819622D05128316B4
:101AC000051283128A018C2064008A15E91B6C2D93
:101AD000071283160712831264008A15E818742D02
:101AE000871383168713831264008A15E81B7C2DE5
:101AF00087128316871283128A018C208A018C2018
:101B00008A15802985168316851283128A018C20F6
:101B10008514831685108312871783168713831203
:101B200085128316851283120512831605128312FD
:101B300005108316051083128A018C2087158316E1
:101B400087118312871583168711831285108316D8
:101B50008510831287138316871383128A018C20C2
:101B600007158316071183120716831607128312AF
:101B700087118316871183128711831687118312A9
:101B80008712831687128312071083160710831299
:101B900005118316051183128A018C2006178316FE
:101BA0000613831207128316071283120711831676
:101BB0000711831207138316071383120612831665
:101BC000061283128A018C200613831606138312D1
:101BD0008A018C2085168316851283128A018C2037
:101BE0000514831605108312051683160512831239
:101BF0008514831685108312871783168713640054
:101C00008A158312E919082E85128316851283120C
:101C10008A018C20871583168711831287158316F6
:101C2000871164008A158312F51F1A2E0515831675
:101C30000511831264008A15691A222E85108316F5
:101C40008510831264008A15E8182A2E87138316DC
:101C50008713831264008A15E819322E0510831643
:101C60000510831264008A1568193A2E051283162E
:101C7000051283128A018C2007158316071183121F
:101C800007168316071264008A15831268184C2EF3
:101C9000871183168711831264008A156818542EE1
:101CA000871183168711831264008A15E81F5C2E42
:101CB000871683168712831264008A15681E642EA5
:101CC00007148316071083128A018C2006178316C7
:101CD000061364008A158312681F722E0717831675
:101CE0000713831264008A15E81E7A2E06168316DF
:101CF0000612831264008A15E91B822E07128316CE
:101D00000712831264008A15E91A8A2E07118316B6
:101D1000071183128A018C2064008A15691B942E96
:101D200006138316061383128A018C208A158029D4
:061D300063008A15982EE5
:02400E00D43CA0
:0842E80001001000600000005D
:1042F0000000A0001000440002000800C4005000AC
:10430000F8001400000044000100540000002800E0
:1043100002008000030080000100C0000000E000F7
:10432000000070000000380000001C0002000C00BB
:044330000300040082
:0643FA00000001000300B9
:00000001FF
